:020000040000FA
:060000000A128A11E72F2D
:10060200043402340030831203138C1A0130092B94
:10061200080064008001840A0406031900340406F9
:100622000B2B831203139715171512149210121520
:100632008316031307110800831203139D151D155A
:100642001214921012158316031387100800F0007B
:100652002A2B83160313981C2F2B302B2A2B312B7A
:10066200700883120313990008000A128A111E24CB
:100672000A128A110A128A114B230A128A11412B79
:100682000A128A11B0240A128A11412B412B0A1232
:100692008A110028003083120313B9000030B80019
:1006A2002530B7008030B6000A128A119D250A1241
:1006B2008A11F00101300A128A11D1260A128A1116
:1006C20008007108F5007008F4006D2B7208F4023E
:1006D2007308031CF503F50275087302031D732BDF
:1006E20074087202031C762B772B672B782B740805
:1006F2007A2B0800F401F5017108F7007008F60082
:100702008E2B7208F6027308031CF703F7020130FE
:10071200F4070318F50A0030F50777087302031D82
:10072200942B76087202031C972B982B822B992B01
:1007320074089B2B0800831203133608F90037084C
:10074200FA003808FB003908FC0002300310F90DEA
:10075200FA0DFB0DFC0DFF3E031DA72B023003100B
:10076200F90DFA0DFB0DFC0DFF3E031DB02B7C08AD
:10077200F3007B08F2007A08F1007908F0000130FA
:10078200F7003130F6002D30F5000030F4000A1287
:100792008A112B260A128A117008FF3E8316031350
:1007A2009200831203133908BF003808BE003708CD
:1007B200BD003608BC000800831203133608F90096
:1007C2003708FA003808FB003908FC000230031031
:1007D200F90DFA0DFB0DFC0DFF3E031DE82B023057
:1007E2000310F90DFA0DFB0DFC0DFF3E031DF12B5D
:1007F2007C08F3007B08F2007A08F1007908F00027
:100802000130F7003130F6002D30F5000030F400F1
:100812000A128A112B260A128A117008FF3E8316C9
:1008220003139200831203133908BF003808BE0075
:100832003708BD003608BC0008004130831203139C
:100842009F008230831603139F0085013F3085008D
:100852008601FF3086008701FF3087008801FF3064
:100862008808831203138901073083160313890052
:10087200003083120313B9000030B8000530B7000E
:10088200DC30B6000A128A119C230A128A11003047
:1008920083120313B9000030B8000530B700DC3012
:1008A200B6000A128A11DD230A128A110A128A116B
:1008B20012230A128A110A128A111D230A128A119C
:1008C2000800F301F4017408803AF2007108803ADA
:1008D2007202031D6E2C70087302031C712C722CA1
:1008E200742CAF2CAF2CF501F6017608803AFF008C
:1008F20081307F02031D7F2C90307502031C822CF5
:10090200832C852C9A2C9A2C00000130F5070318B1
:10091200F60A0030F6077608803AFF0081307F023F
:10092200031D952C90307502031C982C992C852C54
:100932009A2C0130F3070318F40A0030F407740804
:10094200803AF2007108803A7202031DAA2C7008E4
:100952007302031CAD2CAE2C742CAF2C08000A12AF
:100962008A1103230A128A11003A0319B92CBA2CEC
:100972001E2D01300A128A111F250A128A117108CE
:1009820083120313A8007008A7002808F1002708A3
:10099200F0000030F2000130F3000A128A117B23CA
:1009A2000A128A11F800780883120313AC0028088F
:1009B200F1002708F0000030F2000130F3000A12C3
:1009C2008A1162230A128A11F8007808831203132B
:1009D200AB002C08F8007808A5002B08F80078086E
:1009E200A600F901FA01062D7908253E8400831339
:1009F20000080A128A1128230A128A110130F90703
:100A02000318FA0A0030FA07062D7A08803AF8002D
:100A120080307802031D0F2D7D087902031C122DF0
:100A2200132DF52C142DC830F0000030F1000A12FD
:100A32008A1162240A128A111E2D0800F400832DE5
:100A42004530F2007208831203139F05282D1F19E7
:100A52002B2D2C2D282D2D2D1E08F100831603136E
:100A62001E08F0009C2D9C2D9C2D4D3083120313EB
:100A72009F003B2D1F193E2D3F2D3B2D402D1E0863
:100A8200F100831603131E08F0009C2D9C2D9C2D53
:100A92005530831203139F004E2D1F19512D522DD5
:100AA2004E2D532D1E08F100831603131E08F0006D
:100AB2009C2D9C2D9C2D5D30831203139F00612D74
:100AC2001F19642D652D612D662D1E08F1008316F8
:100AD20003131E08F0009C2D9C2D9C2D6530831263
:100AE20003139F00742D1F19772D782D742D792DE6
:100AF2001E08F100831603131E08F0009C2D9C2D86
:100B02009C2D9C2D7408F200F3017308003A03191E
:100B12008B2D9C2D7208003A0319212D013A0319DD
:100B2200362D033A0319492D013A03195C2D073A70
:100B320003196F2D9C2D0800831203133608F90048
:100B42003708FA003808FB003908FC0006300310A9
:100B5200F90DFA0DFB0DFC0DFF3E031DA82D7C08BF
:100B6200F3007B08F2007A08F1007908F000013006
:100B7200F7003130F6002D30F5000030F4000A1293
:100B82008A112B260A128A117008FF3E8312031360
:100B9200BA0071080318013EFF3EBB0001303B0260
:100BA200003003193A02031CD72DD82D0C2E36081B
:100BB200F9003708FA003808FB003908FC00043055
:100BC2000310F90DFA0DFB0DFC0DFF3E031DE12D87
:100BD2007C08F3007B08F2007A08F1007908F00043
:100BE2000130F7003130F6002D30F5000030F4000E
:100BF2000A128A112B260A128A117008FF3E8312EA
:100C02000313BA0071080318013EFF3EBB008316AE
:100C1200031318150C2E013083123B020030031906
:100C22003A020318152E162E2A2E3A08831603139B
:100C32009900181283120313981783160313871748
:100C420007178312031318168316031398162A2EF6
:100C52002A2E080083120313B101F31F312E322E04
:100C62003F2EF009F109F209F309F00A0319F10A1A
:100C72000319F20A0319F30AB101B10AF71F422E4E
:100C8200432E532EF409F509F609F709F40A03195C
:100C9200F50A0319F60A0319F70A0130F800780871
:100CA200B106532E0030B5000030B4000030B3005E
:100CB2000030B20073087204710470040319622ECA
:100CC200632EB62EB001B00A742E0130F800031064
:100CD200F00DF10DF20DF30DF80B682E0130F80056
:100CE2007808B007742EF31F772E782E662E7A2E90
:100CF2007A2E0130F8000310B20DB30DB40DB50D0C
:100D0200F80B7C2E73087702031D912E720876026F
:100D1200031D912E71087502031D912E7008740235
:100D2200031C942E952EA52E7008F4027108031C44
:100D3200710FF5027208031C720FF6027308031C8E
:100D4200730FF7023214A52E01300310F30CF20CCC
:100D5200F10CF00CFF3E031DA62E0130B002031D64
:100D6200B32EB42E7A2EB62EB62E31080319BA2E11
:100D7200BB2EC72EB209B309B409B509B20A0319C9
:100D8200B30A0319B40A0319B50AC72E3508F300CA
:100D92003408F2003308F1003208F000D02E0800C7
:100DA200F300942F700C83160313031C071003180F
:100DB2000714E62F700C83160313031C8710031805
:100DC2008714E62F700C83160313031C07110318F4
:100DD2000715E62F700C83160313031C87110318E3
:100DE2008715E62F700C83160313031C08100318D3
:100DF2000814E62F700C83160313031C88100318C3
:100E02008814E62F700C83160313031C08110318B1
:100E12000815E62F700C83160313031C88110318A0
:100E22008815E62F700C83160313031C0712031890
:100E32000716E62F700C83160313031C8712031880
:100E42008716E62F700C83160313031C071303186F
:100E52000717E62F700C83160313031C871303185E
:100E62008717E62F700C83160313031C081203184E
:100E72000816E62F700C83160313031C881203183E
:100E82008816E62F700C83160313031C081303182D
:100E92000817E62F700C83160313031C881303181C
:100EA2008817E62F700C83160313031C0610031811
:100EB2000614E62F700C83160313031C8610031806
:100EC2008614E62F700C83160313031C06110318F5
:100ED2000615E62F700C83160313031C86110318E4
:100EE2008615E62F700C83160313031C06120318D3
:100EF2000616E62F700C83160313031C86120318C2
:100F02008616E62F700C83160313031C06130318B0
:100F12000617E62F700C83160313031C861303189F
:100F22008617E62FE62F7308F100F2017208003AE5
:100F320003199C2FE62F7108003A0319D32E013AA8
:100F42000319DB2E033A0319E32E013A0319EB2EA0
:100F5200073A0319F32E013A0319FB2E033A031938
:100F6200032F013A03190B2F0F3A0319132F013ADA
:100F720003191B2F033A0319232F013A03192B2FAD
:100F8200073A0319332F013A03193B2F033A031986
:100F9200432F013A03194B2F1F3A0319532F013ADA
:100FA20003195B2F033A0319632F013A03196B2FBD
:100FB200073A0319732F013A03197B2F033A0319D6
:100FC200832F013A03198B2FE62F08000A128A1188
:100FD20001230A128A11C0000A128A1102230A127C
:100FE2008A11FD0083132030840030300A128A11E6
:0E0FF2000A230A128A1183010A128A11362B71
:02400E003A3F37
:00000001FF
