:020000040000FA
:100000000A128A11E52F04340234F00007288316FF
:100010000313981C0C280D2807280E28700883123B
:10002000031399000800831203132608F900270818
:10003000FA002808FB002908FC0002300310F90D23
:10004000FA0DFB0DFC0DFF3E031D1E2802300310B0
:10005000F90DFA0DFB0DFC0DFF3E031D27287C0852
:10006000F3007B08F2007A08F1007908F000013013
:10007000F7003130F6002D30F5000030F4000A12A0
:100080008A15FC240A128A117008FF3E8316031396
:10009000920083120313290883160313C6008312E8
:1000A0000313280883160313C500831203132708BC
:1000B00083160313C4008312031326088316031345
:1000C000C3000800831203132608AA002708AB0008
:1000D0002808AC002908AD0006300310AA0DAB0DAE
:1000E000AC0DAD0DFF3E031D6D282D08F3002C084F
:1000F000F2002B08F1002A08F0000030AE002D308D
:10010000AF003130B0000130B1002608B20027083E
:10011000B3002808B4002908B50006300310B20D5A
:10012000B30DB40DB50DFF3E031D8E28B209B30902
:10013000B409B509B20A0319B30A0319B40A0319B9
:10014000B50A3208AE0733080318330FA828A928C8
:10015000AF0734080318340FAE28AF28B0073508AE
:100160000318350AB1073108F7003008F6002F08E8
:10017000F5002E08F4000A128A15FC240A128A11CE
:100180007108FA007008F90001307A020030031992
:100190007902031CCC28CD283329831203132608A7
:1001A000AA002708AB002808AC002908AD000430DD
:1001B0000310AA0DAB0DAC0DAD0DFF3E031DD828ED
:1001C0002D08F3002C08F2002B08F1002A08F0009B
:1001D0000030AE002D30AF003130B0000130B10042
:1001E0002608B2002708B3002808B4002908B50083
:1001F00004300310B20DB30DB40DB50DFF3E031D59
:10020000F928B209B309B409B509B20A0319B30A46
:100210000319B40A0319B50A3208AE0733080318E4
:10022000330F13291429AF0734080318340F192981
:100230001A29B00735080318350AB1073108F70045
:100240003008F6002F08F5002E08F4000A128A156F
:10025000FC240A128A117108FA007008F90083164A
:1002600003131815332901307A020030031979027B
:1002700003183B293C295029790883160313990058
:10028000181283120313981783160313871707177F
:100290008312031318168316031398165029502936
:1002A0000800F300142A700C83160313031C0710B4
:1002B00003180714662A700C83160313031C871097
:1002C00003188714662A700C83160313031C071186
:1002D00003180715662A700C83160313031C871175
:1002E00003188715662A700C83160313031C081065
:1002F00003180814662A700C83160313031C881055
:1003000003188814662A700C83160313031C081143
:1003100003180815662A700C83160313031C881132
:1003200003188815662A700C83160313031C071222
:1003300003180716662A700C83160313031C871212
:1003400003188716662A700C83160313031C071301
:1003500003180717662A700C83160313031C8713F0
:1003600003188717662A700C83160313031C0812E0
:1003700003180816662A700C83160313031C8812D0
:1003800003188816662A700C83160313031C0813BF
:1003900003180817662A700C83160313031C8813AE
:1003A00003188817662A700C83160313031C0610A3
:1003B00003180614662A700C83160313031C861098
:1003C00003188614662A700C83160313031C061187
:1003D00003180615662A700C83160313031C861176
:1003E00003188615662A700C83160313031C061265
:1003F00003180616662A700C83160313031C861254
:1004000003188616662A700C83160313031C061342
:1004100003180617662A700C83160313031C861331
:1004200003188617662A662A7308F100F20172081B
:10043000003A03191C2A662A7108003A0319532945
:10044000013A03195B29033A03196329013A031995
:100450006B29073A03197329013A03197B29033AD7
:1004600003198329013A03198B290F3A0319932998
:10047000013A03199B29033A0319A329013A0319E5
:10048000AB29073A0319B329013A0319BB29033AE7
:100490000319C329013A0319CB291F3A0319D32998
:1004A000013A0319DB29033A0319E329013A031935
:1004B000EB29073A0319F329013A0319FB29033AF7
:1004C0000319032A013A03190B2A662A080083122A
:1004D00003133D088039BE003E08C7003D08BE003A
:1004E0003E07BF003F08CE00BC1F772A782A7A2A31
:1004F0004E147A2A4E0803197E2A7F2A902A4E0A21
:10050000031D832A842A8D2A0030BD000030BC00E0
:100510000030BB000030BA008D2ABC17BD01992AFB
:100520000030BD000030BC000030BB000030BA001D
:10053000992A39088039BE003E08C7063908BE002E
:100540003E07BF003F08CF00B81FA72AA82AAA2A43
:100550004F14AA2A4F080319AE2AAF2AC02A4F0AFD
:10056000031DB32AB42ABD2A0030B9000030B800F8
:100570000030B7000030B600BD2AB817B901C82A4C
:100580000030B9000030B8000030B7000030B600CD
:100590003908380437043604031DCF2AD02AEA2A42
:1005A0000030BD000030BC000030BB000030BA009D
:1005B0008030BC047F30BD044708BE003E08BD0447
:1005C0003D08B9003C08B8003B08B7003A08B6003F
:1005D0006F2C6F2C4E08031DEE2AEF2A012B0030E2
:1005E000BD000030BC000030BB000030BA003D0848
:1005F000B9003C08B8003B08B7003A08B6006F2CB9
:100600006F2C4F08BE00BF01BE09BF09BE0A031907
:10061000BF0A4E083E07C0003F0803183F0AC1004A
:1006200040087F3EC80041080318013E003EC90053
:100630003D08C6003C08C5003B08C4003A08C3009A
:100640000030BD000030BC000030BB000030BA00FC
:100650000030CD000030CC000030CB000030CA00AC
:10066000CF01802B4F080319362B372B592B013024
:10067000BE000310C30DC40DC50DC60DBE0B392B36
:100680000130BE000310BA0DBB0DBC0DBD0DBE0B7D
:10069000422BCD1F4C2B4D2B4F2B3A144F2B01309F
:1006A000BE000310CA0DCB0DCC0DCD0DBE0B512BD2
:1006B000592B39084602031D672B38084502031DD4
:1006C000672B37084402031D672B36084302031CBF
:1006D0006A2B6B2B7B2B4D173608C3023708031C84
:1006E000370FC4023808031C380FC5023908031C31
:1006F000390FC6027B2B0130BE003E08CF07802B8E
:100700001A304F02031C852B862B322B872B460871
:1007100045044404430403198E2B8F2BB12B4A1438
:10072000B12BB12B0130BE000310BA0DBB0DBC0DB7
:10073000BD0DBE0B942BCD1F9E2B9F2BA12B3A14CE
:10074000A12B0130BE000310CA0DCB0DCC0DCD0D79
:10075000BE0BA32BFF30C8070318C90AFF30C90717
:10076000B12BBC1FB42BB52B922BB62BCF01CD1FB9
:10077000BA2BBB2BDB2BFF304A05BE00FF304B05ED
:10078000BF00FF304C05C0007F304D05C10041085F
:1007900040043F043E040319CE2BCF2BD22BCF01B4
:1007A000CF0ADB2B3A1CD52BD62BDB2BCF01CF0A64
:1007B000DB2BDB2BDB2B4F080319DF2BE02B132C60
:1007C0000130BA07003003180130BB0700300318AE
:1007D0000130BC07003003180130BD073D1CF12B70
:1007E000F22B132C3A08BE003B08BF003C08C000A7
:1007F0003D08C1000130C200410DC10CC00CBF0C4E
:10080000BE0CC20BFC2B4108BD004008BC003F08D9
:10081000BB003E08BA000130C8070318C90A0030FF
:10082000C907132C132C4908803AFF0080307F023F
:10083000031D1C2CFF304802031C1F2C202C2F2CC6
:10084000FF3083120313C8000030C9000030BD0020
:100850000030BC000030BB000030BA002F2C8312E7
:1008600003134908803AFF0080307F02031D3A2CB1
:100870000130480203183D2C3E2C4B2C83120313ED
:10088000C801C9010030BD000030BC000030BB0011
:100890000030BA00C701831203134808BE003E08A7
:1008A000CE004E1C542C552C572CBC175B2C7F3083
:1008B000BE003E08BC054E08BE0003103E0CBF0043
:1008C0003F08BD004708BE003E08BD043D08B90012
:1008D0003C08B8003B08B7003A08B6006F2C080087
:1008E0008312031353088039D8005808DD005308D9
:1008F000D8005807D9005908E300D21F802C812C5A
:10090000832C6314832C63080319872C882C982C60
:10091000630A031D8C2C8D2C962C0030D3000030E4
:10092000D2000030D1000030D000962CD217A12C7C
:100930000030D3000030D2000030D1000030D000B1
:10094000A12C57088039D8005808DD065708D80070
:100950005807D9005908E200D61FAF2CB02CB22C92
:100960006214B22C62080319B62CB72CC72C620A89
:10097000031DBB2CBC2CC52C0030D7000030D6008A
:100980000030D5000030D400C52CD617D02C003054
:10099000D7000030D6000030D5000030D400D02C75
:1009A00062080319D42CD52CDB2C6308031DD92C29
:1009B000DA2CE52CDB2C0030D3000030D2000030E4
:1009C000D1000030D000E42FE42F5008D8005808A0
:1009D000F00056080A128A15D7210A128A117108E6
:1009E00083120313E9007008E8006808D800D901F1
:1009F000DA01DB015B08E1005A08E0005908DF007A
:100A00005808DE006908D800D901DA01DB015B086B
:100A1000E7005A08E6005908E5005808E4005108C4
:100A2000D8005808F00055080A128A15D7210A1272
:100A30008A11710883120313E9007008E80068083E
:100A4000D800D901DA01DB015808DE075908031183
:100A50000318013E03192D2DDF075A08031103184F
:100A6000013E0319342DE0075B0803110318013E12
:100A700003193B2DE1076908D800D901DA01DB0130
:100A80005808E407590803110318013E0319492DBA
:100A9000E5075A0803110318013E0319502DE60714
:100AA0005B0803110318013E0319572DE70752088D
:100AB000D8005808F00054080A128A15D7210A12E3
:100AC0008A11710883120313E9007008E8006808AE
:100AD000D800D901DA01DB015808DE0759080311F3
:100AE0000318013E0319752DDF075A080311031877
:100AF000013E03197C2DE0075B0803110318013E3A
:100B00000319832DE1076908D800D901DA01DB0157
:100B10005808E407590803110318013E0319912DE1
:100B2000E5075A0803110318013E0319982DE6073B
:100B30005B0803110318013E03199F2DE7070830D6
:100B4000D8000310DE0DDF0DE00DE10DD80BA12D57
:100B50005108D8005808F00054080A128A15D72105
:100B60000A128A11710883120313E9007008E80061
:100B70006808D8006908D900DA01DB015808DE07E7
:100B8000590803110318013E0319C72DDF075A083E
:100B900003110318013E0319CE2DE0075B08031172
:100BA0000318013E0319D52DE1075008D800580855
:100BB000F00055080A128A15D7210A128A11710805
:100BC00083120313E9007008E8006808D800690878
:100BD000D900DA01DB015808DE07590803110318B0
:100BE000013E0319F42DDF075A0803110318013ED3
:100BF0000319FB2DE0075B0803110318013E0319DD
:100C0000022EE1070830D8000310DE0DDF0DE00DE5
:100C1000E10DD80B042E5008D8005808F0005408F5
:100C20000A128A15D7210A128A1171088312031336
:100C3000E9007008E8006808D8006908D900DA01FE
:100C4000DB015808DE07590803110318013E031998
:100C50002A2EDF075A0803110318013E0319312E0B
:100C6000E0075B0803110318013E0319382EE10762
:100C70005108D8005808F00056080A128A15D721E2
:100C80000A128A11710883120313E9007008E80040
:100C90006808D8006908D900DA01DB015808E407C0
:100CA000590803110318013E0319572EE5075A0886
:100CB00003110318013E03195E2EE6075B080311BA
:100CC0000318013E0319652EE7075208D80058089B
:100CD000F00055080A128A15D7210A128A117108E4
:100CE00083120313E9007008E8006808D800690857
:100CF000D900DA01DB015808E40759080311031889
:100D0000013E0319842EE5075A0803110318013E1A
:100D100003198B2EE6075B0803110318013E031924
:100D2000922EE7075208D8005808F00056080A1219
:100D30008A15D7210A128A11710883120313E90058
:100D40007008E8006808D8006908D900DA01DB01FA
:100D500008300310D80DD90DDA0DDB0DFF3E031D51
:100D6000A92E5808E407590803110318013E031976
:100D7000BA2EE5075A0803110318013E0319C12EC4
:100D8000E6075B0803110318013E0319C82EE707A5
:100D90005E08D8005F08D9006008DA006108DB004F
:100DA00018300310DB0CDA0CD90CD80CFF3E031DF5
:100DB000D12E5808E407590803110318013E0319FE
:100DC000E22EE5075A0803110318013E0319E92E24
:100DD000E6075B0803110318013E0319F02EE7072D
:100DE0000830D8000310DE0DDF0DE00DE10DD80B4B
:100DF000F22E63086207D800D901D90D5808823E47
:100E0000E80059080318013EFF3EE900262F013093
:100E1000D8000310E40DE50DE60DE70DD80B092F02
:100E2000E11F132F142F162F6414162F0130D80032
:100E30000310DE0DDF0DE00DE10DD80B182FFF3094
:100E4000E8070318E90AFF30E907262FE61F292FD4
:100E50002A2F072F2B2FE201E11F2F2F302F502F8A
:100E6000FF305E05D800FF305F05D900FF30600518
:100E7000DA007F306105DB005B085A04590458042E
:100E80000319432F442F472FE201E20A502F641C1D
:100E90004A2F4B2F502FE201E20A502F502F502F94
:100EA00062080319542F552F882F0130E4070030B2
:100EB00003180130E507003003180130E607003061
:100EC00003180130E707671C662F672F882F640817
:100ED000D8006508D9006608DA006708DB00013031
:100EE000DC005B0DDB0CDA0CD90CD80CDC0B712FA1
:100EF0005B08E7005A08E6005908E5005808E400D6
:100F00000130E8070318E90A0030E907882F882F25
:100F10006908803AFF0080307F02031D912FFF3067
:100F20006802031C942F952FA02F7F308312031388
:100F3000E7008030E6000030E5000030E400D72F05
:100F4000831203136908803AFF0080307F02031D7B
:100F5000AB2F013068020318AE2FAF2FBB2F00302C
:100F600083120313E7000030E6000030E500003094
:100F7000E400DD01D72F831203136808D800580856
:100F8000E300FF30E405FF30E5057F30E605003083
:100F9000E705631CCC2FCD2FCF2FE617CF2F63088B
:100FA000D8000310580CD9005908E700D72F5D0866
:100FB000D8005808E7046708D3006608D20065081F
:100FC000D1006408D000E42F0800831603130A122E
:100FD0008A1103200A128A11C7000A128A110420FA
:100FE0000A128A11C8008313B3308400C3300A1276
:100FF0008A1548210A128A1183010A128A15712959
:101282000030831203138C1A0130472908006400CE
:101292008001840A040603190034040649298312D2
:1012A20003139715171512149210121583160313B0
:1012B20007110800831203139D151D1512149210B5
:1012C200121583160313871008006729831203136C
:1012D2008C1E6C296D2967296E291A08702908004D
:1012E2000A128A155F220A128A150A128A158621A3
:1012F2000A128A157C290A128A152E270A128A15C1
:101302007C297C290A128A110028003083120313D7
:10131200A9000030A8002530A7008030A6000A12DC
:101322008A1162200A128A15F00101300A128A110A
:1013320051210A128A1508007108F5007008F4009C
:10134200A8297208F4027308031CF503F502750854
:101352007302031DAE2974087202031CB129B2295B
:10136200A229B3297408B5290800F401F50171080E
:10137200F7007008F600C9297208F6027308031C08
:10138200F703F7020130F4070318F50A0030F507F6
:1013920077087302031DCF2976087202031CD22933
:1013A200D329BD29D4297408D6290800F800F401EC
:1013B200F5017008F200F3017208F6007308F700F5
:1013C200E229781CE529E629EC297608F4070318B6
:1013D200F50A7708F50701300310F60DF70DFF3E09
:1013E200031DED290310F80C7808031DF929FA29C9
:1013F200E229FB297508F1007408F000002A0800B0
:10140200FD001C2A831603132A08A6002908A5003A
:101412000A128A155D240A128A152E2A83160313CC
:101422002A08A6002908A5000A128A15BE230A1254
:101432008A152E2A2E2A7D0883160313AB00AC01CF
:101442002C08003A0319262A2E2A2B08013A0319DE
:10145200032A033A03190F2A2E2A080083160313BC
:101462004308F9004408FA004508FB004608FC005E
:1014720002300310F90DFA0DFB0DFC0DFF3E031DAA
:101482003A2A7C08F3007B08F2007A08F100790816
:10149200F0000130F7003130F6002D30F500003059
:1014A200F4000A128A15FC240A128A1571088312A2
:1014B2000313A7007008A6005E2A080041308312B9
:1014C20003139F008230831603139F0085013F3070
:1014D20085008601FF3086008701FF308700880182
:1014E200FF30880883120313890107308316031320
:1014F2008900003083120313A9000030A8000530D0
:10150200A700DC30A6000A128A15F1220A128A15F7
:10151200003083120313A9000030A8000530A70091
:10152200DC30A6000A128A1113200A128A150A1246
:101532008A1550210A128A150A128A155B210A128B
:101542008A150800F301F4017408803AF200710868
:10155200803A7202031DAF2A70087302031CB22A7A
:10156200B32AB52AF02AF02AF501F6017608803A64
:10157200FF0081307F02031DC02A90307502031CD8
:10158200C32AC42AC62ADB2ADB2A00000130F50757
:101592000318F60A0030F6077608803AFF00813019
:1015A2007F02031DD62A90307502031CD92ADA2A3B
:1015B200C62ADB2A0130F3070318F40A0030F407C5
:1015C2007408803AF2007108803A7202031DEB2A15
:1015D20070087302031CEE2AEF2AB52AF02A0800CB
:1015E200831203132608F9002708FA002808FB00D3
:1015F2002908FC0002300310F90DFA0DFB0DFC0D59
:10160200FF3E031DFC2A02300310F90DFA0DFB0DFB
:10161200FC0DFF3E031D052B7C08F3007B08F20046
:101622007A08F1007908F0000130F7003130F60055
:101632002D30F5000030F4000A128A15FC240A123B
:101642008A157008FF3E8316031392008312031358
:10165200290883160313C60083120313280883166E
:101662000313C50083120313270883160313C40050
:1016720083120313260883160313C3000800F40021
:10168200A42B4530F2007208831203139F05492BE5
:101692001F194C2B4D2B492B4E2B1E08F100831684
:1016A20003131E08F000BD2BBD2BBD2B4D30831242
:1016B20003139F005C2B1F195F2B602B5C2B612B8C
:1016C2001E08F100831603131E08F000BD2BBD2B6C
:1016D200BD2B5530831203139F006F2B1F19722BE2
:1016E200732B6F2B742B1E08F100831603131E0835
:1016F200F000BD2BBD2BBD2B5D30831203139F0069
:10170200822B1F19852B862B822B872B1E08F1001B
:10171200831603131E08F000BD2BBD2BBD2B6530B5
:10172200831203139F00952B1F19982B992B952B2E
:101732009A2B1E08F100831603131E08F000BD2B1E
:10174200BD2BBD2BBD2B7408F200F3017308003AC8
:101752000319AC2BBD2B7208003A0319422B013A34
:101762000319572B033A03196A2B013A03197D2BEC
:10177200073A0319902BBD2B08000430831603137C
:1017820026020030031925020318C82BC92B5C2C32
:10179200250883120313A800831603132608831255
:1017A2000313A900AA01AB0100300A128A15A2256F
:1017B2000A128A15831203132B08BD002A08BC00E3
:1017C2002908BB002808BA004430B9007F30B800AD
:1017D200C030B7000030B6000A128A1167220A121E
:1017E2008A15831203133908D7003808D600370840
:1017F200D5003608D4000A128A152F220A128A1539
:10180200831203132608A8002708A9000030A91B89
:10181200FF30AA00AB0001300A128A15A2250A1273
:101822008A15831203132B08D3002A08D200290831
:10183200D1002808D0000A128A1170240A128A15CF
:10184200831203135308ED005208EC005108EB0019
:101852005008EA000A128A1566260A128A158312AD
:1018620003136B0883160313A600831203136A087B
:1018720083160313A500831203139712831603130F
:101882002518442C482C8312031317164B2C831251
:1018920003131712831603132608A8002508A700AE
:1018A2000310A80CA70C0310A80CA70C270883127E
:1018B200031395005C2C08000430831603132602E0
:1018C2000030031925020318672C682CFB2C25080D
:1018D20083120313A800831603132608831203132B
:1018E200A900AA01AB0100300A128A15A2250A1228
:1018F2008A15831203132B08BD002A08BC0029088D
:10190200BB002808BA004430B9007F30B800C030AC
:10191200B7000030B6000A128A1167220A128A152D
:10192200831203133908D7003808D6003708D500C8
:101932003608D4000A128A152F220A128A15831237
:1019420003132608A8002708A9000030A91BFF30AE
:10195200AA00AB0001300A128A15A2250A128A15C2
:10196200831203132B08D3002A08D2002908D100BE
:101972002808D0000A128A1170240A128A158312CA
:1019820003135308ED005208EC005108EB00500815
:10199200EA000A128A1566260A128A1583120313AE
:1019A2006B0883160313A600831203136A088316B7
:1019B2000313A500831203139D1283160313251824
:1019C200E32CE72C831203131D16EA2C8312031354
:1019D2001D12831603132608A8002508A70003106A
:1019E200A80CA70C0310A80CA70C2708831203133A
:1019F2009B00FB2C080083120313A101F31F022D8D
:101A0200032D102DF009F109F209F309F00A031967
:101A1200F10A0319F20A0319F30AA101A10AF71F35
:101A2200132D142D242DF409F509F609F709F40AEA
:101A32000319F50A0319F60A0319F70A0130F80027
:101A42007808A106242D0030A5000030A400003043
:101A5200A3000030A2007308720471047004031919
:101A6200332D342D872DA001A00A452D0130F80019
:101A72000310F00DF10DF20DF30DF80B392D0130BD
:101A8200F8007808A007452DF31F482D492D372D62
:101A92004B2D4B2D0130F8000310A20DA30DA40D08
:101AA200A50DF80B4D2D73087702031D622D7208E8
:101AB2007602031D622D71087502031D622D7008E6
:101AC2007402031C652D662D762D7008F4027108D0
:101AD200031C710FF5027208031C720FF6027308E1
:101AE200031C730FF7022214762D01300310F30C3E
:101AF200F20CF10CF00CFF3E031D772D0130A00219
:101B0200031D842D852D4B2D872D872D210803192B
:101B12008B2D8C2D982DA209A309A409A509A20A2F
:101B22000319A30A0319A40A0319A50A982D250863
:101B3200F3002408F2002308F1002208F000A12D8E
:101B4200080083120313B00030080319A92DAA2D2F
:101B5200BE2DAB1FAD2DAE2DBE2D2809B200290919
:101B6200B3002A09B4002B09B500B20A0319B30A5B
:101B72000319B40A0319B50AC62D2B08B5002A08A1
:101B8200B4002908B3002808B2002B082A0429044B
:101B92002804031DCD2DCE2DD82D0030AB000030F2
:101BA200AA000030A9000030A800652E652E9630EC
:101BB200AC002C08B100EB2D0130AC002C08B107B1
:101BC20001300310B50CB40CB30CB20CFF3E031D74
:101BD200E22DEB2DFE303505031DF02DF12DDD2D0F
:101BE2000E2E0E2E0130AC002C08B1070130B207C8
:101BF200003003180130B307003003180130B40776
:101C0200003003180130B50701300310B50CB40CD5
:101C1200B30CB20CFF3E031D062EFF303505031D2B
:101C2200132E142EF32D222E222E0130B10201305A
:101C3200AC000310B20DB30DB40DB50DAC0B1A2EE2
:101C4200222EB41B252E262E2D2E023031020318F1
:101C52002B2E2C2E162E2D2E3118302E312E392EC3
:101C6200FF30B205FF30B3057F30B405FF30B50554
:101C72000310B10C3108AC00AD01AE01AF01183058
:101C82000310AC0DAD0DAE0DAF0DFF3E031D412E89
:101C92002C08B2042D08B3042E08B4042F08B5048E
:101CA20030080319552E562E5C2EAB1F592E5A2E74
:101CB2005C2EB5175C2E3508AB003408AA00330839
:101CC200A9003208A800652E0800831203136A08CF
:101CD20083160313A000831203136B0883160313E6
:101CE200A100831203136C0883160313A20083124C
:101CF20003136D0883160313A3000310220D230D93
:101D0200A400240883120313EF006F08031D8A2E18
:101D12008B2E952E0030ED000030EC000030EB00F1
:101D22000030EA002D2F2D2F6A0883160313A0001E
:101D3200831203136B0883160313A1008312031388
:101D42006C0883160313A200831203136D08831613
:101D52000313A3001F300310A30CA20CA10CA00CB0
:101D6200FF3E031DAC2E2008A40024088312031397
:101D7200EE00EC17FF30EA05FF30EB05FF30EC0513
:101D82000030ED059630EF02EF1FC82EC92EF22E5D
:101D92006F08803A973E0318CF2ED02EDB2E0030EC
:101DA200ED000030EC000030EB000030EA002D2F97
:101DB2002D2FDB2E01300310ED0CEC0CEB0CEA0C9A
:101DC200FF3E031DDC2E013083160313A000200802
:101DD20083120313EF07031DEF2EF02EDB2E1D2FB0
:101DE2001D2F20306F02031CF72EF82E162F003005
:101DF200ED000030EC000030EB000030EA002D2F47
:101E02002D2F162F013083160313A0000310831207
:101E12000313EA0DEB0DEC0DED0D83160313A00B6E
:101E2200072F013083120313EF026F08031D1A2FCD
:101E32001B2F032F1D2F1D2F6E080319212F222F59
:101E42002D2FEA09EB09EC09ED09EA0A0319EB0A5D
:101E52000319EC0A0319ED0A08000A128A15412136
:101E62000A128A15003A0319372F382FF32F8316D7
:101E72000313AF01B001522F0A128A1566210A120A
:101E82008A1583160313AD002F08B33E84002D0874
:101E9200831380000130AF070318B00A0030B00787
:101EA200522F3008803AAD0080302D02031D5B2F87
:101EB20048082F02031C5E2F5F2F3D2F602F8316D1
:101EC20003133408AD002D08BC003308AD002D0803
:101ED200BD003D08AD00AE012D08B6002E08B700CA
:101EE2003608AE00AD012D08B6002E08B7003C083A
:101EF200AD00AE012D08B6070318B70A2E08B707C2
:101F02003708AA003608A90001300A128A150122F0
:101F12000A128A1500300A128A1540230A128A15FB
:101F2200710883160313BB007008BA003B08F10066
:101F32003A08F0000030F2000130F3000A128A156C
:101F4200B6210A128A1583160313AD002D08BF00AD
:101F52003B08F1003A08F0000030F2000130F300D3
:101F62000A128A159D210A128A1583160313AD00DF
:101F72002D08BE003F08AD002D08B8003E08AD0098
:101F82002D08B900B101B201DB2F8316031331080A
:101F9200B83E8400831300080A128A1105200A122F
:101FA2008A15013083160313B1070318B20A0030F1
:101FB200B207DB2F3208803AAD0080302D02031DBC
:101FC200E42F48083102031CE72FE82FC62FE92F20
:101FD2006430F0000030F1000A128A15A3220A12BE
:101FE2008A15FF2F003083160313A900AA000430BC
:0E1FF2000A128A1501220A128A15FF2F080012
:02400E003A3F37
:00000001FF
